{
  "contractName": "GuessTheNewNumberSolver",
  "abi": [
    {
      "inputs": [],
      "payable": false,
      "stateMutability": "nonpayable",
      "type": "constructor"
    },
    {
      "payable": true,
      "stateMutability": "payable",
      "type": "fallback"
    },
    {
      "constant": false,
      "inputs": [
        {
          "name": "_challenge",
          "type": "address"
        }
      ],
      "name": "guess",
      "outputs": [],
      "payable": true,
      "stateMutability": "payable",
      "type": "function"
    },
    {
      "constant": false,
      "inputs": [],
      "name": "withdraw",
      "outputs": [],
      "payable": false,
      "stateMutability": "nonpayable",
      "type": "function"
    }
  ],
  "bytecode": "0x6060604052341561000f57600080fd5b336000806101000a81548173ffffffffffffffffffffffffffffffffffffffff021916908373ffffffffffffffffffffffffffffffffffffffff1602179055506102688061005e6000396000f30060606040526004361061004c576000357c0100000000000000000000000000000000000000000000000000000000900463ffffffff1680633ccfd60b1461004e578063e216c5e614610063575b005b341561005957600080fd5b610061610091565b005b61008f600480803573ffffffffffffffffffffffffffffffffffffffff16906020019091905050610166565b005b6000809054906101000a900473ffffffffffffffffffffffffffffffffffffffff1673ffffffffffffffffffffffffffffffffffffffff163373ffffffffffffffffffffffffffffffffffffffff161415156100ec57600080fd5b6000809054906101000a900473ffffffffffffffffffffffffffffffffffffffff1673ffffffffffffffffffffffffffffffffffffffff166108fc3073ffffffffffffffffffffffffffffffffffffffff16319081150290604051600060405180830381858888f19350505050151561016457600080fd5b565b600080670de0b6b3a76400003414151561017f57600080fd5b6001430340426040518083600019166000191681526020018281526020019250505060405180910390206001900491508290508073ffffffffffffffffffffffffffffffffffffffff16634ba4c16b34846040518363ffffffff167c0100000000000000000000000000000000000000000000000000000000028152600401808260ff1660ff1681526020019150506000604051808303818588803b151561022657600080fd5b5af1151561023357600080fd5b505050505050505600a165627a7a723058201c8b3fca29e4df3fc38f3d9b7f64c7701986846f69ef449938c4a5631a1decb60029",
  "source": "pragma solidity ^0.4.21;\n\nimport \"./GuessTheNewNumberChallenge.sol\";\n\ncontract GuessTheNewNumberSolver {\n    address owner;\n\n    function GuessTheNewNumberSolver() public {\n        owner = msg.sender;\n    }\n\n    function guess(address _challenge)\n    public\n    payable {\n        require(msg.value == 1 ether);\n        uint8 answer = uint8(keccak256(block.blockhash(block.number - 1), now));\n\n        GuessTheNewNumberChallenge challenge = GuessTheNewNumberChallenge(_challenge);\n        challenge.guess.value(msg.value)(answer);\n    }\n\n    function ()\n    public\n    payable {\n    }\n\n    function withdraw() public {\n        require(msg.sender == owner);\n        owner.transfer(address(this).balance);\n    }\n}\n",
  "sourcePath": "/Users/saurfang/workspace/capture-the-ether/contracts/GuessTheNewNumberSolver.sol",
  "compiler": {
    "name": "solc",
    "version": "0.4.21+commit.dfe3193c.Emscripten.clang"
  },
  "schemaVersion": "2.0.0",
  "updatedAt": "2018-04-15T03:10:37.022Z"
}