{
  "contractName": "GuessTheNewNumberChallenge",
  "abi": [
    {
      "inputs": [],
      "payable": true,
      "stateMutability": "payable",
      "type": "constructor"
    },
    {
      "constant": true,
      "inputs": [],
      "name": "isComplete",
      "outputs": [
        {
          "name": "",
          "type": "bool"
        }
      ],
      "payable": false,
      "stateMutability": "view",
      "type": "function"
    },
    {
      "constant": false,
      "inputs": [
        {
          "name": "n",
          "type": "uint8"
        }
      ],
      "name": "guess",
      "outputs": [],
      "payable": true,
      "stateMutability": "payable",
      "type": "function"
    }
  ],
  "bytecode": "0x6060604052670de0b6b3a76400003414151561001a57600080fd5b610189806100296000396000f30060606040526004361061004c576000357c0100000000000000000000000000000000000000000000000000000000900463ffffffff1680634ba4c16b14610051578063b2fa1c9e1461006c575b600080fd5b61006a600480803560ff16906020019091905050610099565b005b341561007757600080fd5b61007f61013c565b604051808215151515815260200191505060405180910390f35b6000670de0b6b3a7640000341415156100b157600080fd5b6001430340426040518083600019166000191681526020018281526020019250505060405180910390206001900490508060ff168260ff161415610138573373ffffffffffffffffffffffffffffffffffffffff166108fc671bc16d674ec800009081150290604051600060405180830381858888f19350505050151561013757600080fd5b5b5050565b6000803073ffffffffffffffffffffffffffffffffffffffff1631149050905600a165627a7a72305820f57b7bb29ceb641239b6a111630864aa3824d58e8907355aa56c6547024800c00029",
  "source": "pragma solidity ^0.4.21;\n\ncontract GuessTheNewNumberChallenge {\n    function GuessTheNewNumberChallenge() public payable {\n        require(msg.value == 1 ether);\n    }\n\n    function isComplete() public view returns (bool) {\n        return address(this).balance == 0;\n    }\n\n    function guess(uint8 n) public payable {\n        require(msg.value == 1 ether);\n        uint8 answer = uint8(keccak256(block.blockhash(block.number - 1), now));\n\n        if (n == answer) {\n            msg.sender.transfer(2 ether);\n        }\n    }\n}\n",
  "sourcePath": "/Users/saurfang/workspace/capture-the-ether/contracts/GuessTheNewNumberChallenge.sol",
  "compiler": {
    "name": "solc",
    "version": "0.4.21+commit.dfe3193c.Emscripten.clang"
  },
  "schemaVersion": "2.0.0",
  "updatedAt": "2018-04-15T03:10:37.021Z"
}