{
  "contractName": "Miner",
  "abi": [
    {
      "constant": false,
      "inputs": [],
      "name": "reset",
      "outputs": [],
      "payable": false,
      "stateMutability": "nonpayable",
      "type": "function"
    },
    {
      "constant": false,
      "inputs": [],
      "name": "mine",
      "outputs": [],
      "payable": false,
      "stateMutability": "nonpayable",
      "type": "function"
    },
    {
      "constant": true,
      "inputs": [],
      "name": "numBlocks",
      "outputs": [
        {
          "name": "",
          "type": "uint256"
        }
      ],
      "payable": false,
      "stateMutability": "view",
      "type": "function"
    }
  ],
  "bytecode": "0x6060604052341561000f57600080fd5b60e48061001d6000396000f3006060604052600436106053576000357c0100000000000000000000000000000000000000000000000000000000900463ffffffff168063930fc21614605857806399f4b25114607e578063d826f88f146090575b600080fd5b3415606257600080fd5b606860a2565b6040518082815260200191505060405180910390f35b3415608857600080fd5b608e60ad565b005b3415609a57600080fd5b60a060af565b005b600080544303905090565b565b436000819055505600a165627a7a72305820356d4c4c761aa536f1f95d6becabcf5a84ee5b83d6961e93661f1b400dea6d670029",
  "source": "pragma solidity ^0.4.21;\n\ncontract Miner {\n    uint blockNumber;\n\n    function reset() public {\n        blockNumber = block.number;\n    }\n\n    function mine() public {\n\n    }\n\n    function numBlocks() public view returns(uint) {\n        return block.number - blockNumber;\n    }\n}\n",
  "sourcePath": "/Users/saurfang/workspace/capture-the-ether/contracts/Miner.sol",
  "compiler": {
    "name": "solc",
    "version": "0.4.21+commit.dfe3193c.Emscripten.clang"
  },
  "schemaVersion": "2.0.0",
  "updatedAt": "2018-04-15T07:01:51.831Z"
}