{
  "contractName": "PredictTheFutureChallenge",
  "abi": [
    {
      "inputs": [],
      "payable": true,
      "stateMutability": "payable",
      "type": "constructor"
    },
    {
      "constant": true,
      "inputs": [],
      "name": "isComplete",
      "outputs": [
        {
          "name": "",
          "type": "bool"
        }
      ],
      "payable": false,
      "stateMutability": "view",
      "type": "function"
    },
    {
      "constant": false,
      "inputs": [
        {
          "name": "n",
          "type": "uint8"
        }
      ],
      "name": "lockInGuess",
      "outputs": [],
      "payable": true,
      "stateMutability": "payable",
      "type": "function"
    },
    {
      "constant": false,
      "inputs": [],
      "name": "settle",
      "outputs": [],
      "payable": false,
      "stateMutability": "nonpayable",
      "type": "function"
    }
  ],
  "bytecode": "0x6060604052670de0b6b3a76400003414151561001a57600080fd5b610320806100296000396000f300606060405260043610610057576000357c0100000000000000000000000000000000000000000000000000000000900463ffffffff16806311da60b41461005c5780632c0e005414610071578063b2fa1c9e1461008c575b600080fd5b341561006757600080fd5b61006f6100b9565b005b61008a600480803560ff1690602001909190505061020f565b005b341561009757600080fd5b61009f6102d3565b604051808215151515815260200191505060405180910390f35b60008060009054906101000a900473ffffffffffffffffffffffffffffffffffffffff1673ffffffffffffffffffffffffffffffffffffffff163373ffffffffffffffffffffffffffffffffffffffff1614151561011657600080fd5b6001544311151561012657600080fd5b600a6001430340426040518083600019166000191681526020018281526020019250505060405180910390206001900460ff1681151561016257fe5b06905060008060006101000a81548173ffffffffffffffffffffffffffffffffffffffff021916908373ffffffffffffffffffffffffffffffffffffffff1602179055508060ff16600060149054906101000a900460ff1660ff16141561020c573373ffffffffffffffffffffffffffffffffffffffff166108fc671bc16d674ec800009081150290604051600060405180830381858888f19350505050151561020b57600080fd5b5b50565b60008060009054906101000a900473ffffffffffffffffffffffffffffffffffffffff1673ffffffffffffffffffffffffffffffffffffffff1614151561025557600080fd5b670de0b6b3a76400003414151561026b57600080fd5b336000806101000a81548173ffffffffffffffffffffffffffffffffffffffff021916908373ffffffffffffffffffffffffffffffffffffffff16021790555080600060146101000a81548160ff021916908360ff1602179055506001430160018190555050565b6000803073ffffffffffffffffffffffffffffffffffffffff1631149050905600a165627a7a7230582075965728184e7137663a82c93816e5710ebb363190641cd57a4278202c3e5d620029",
  "source": "pragma solidity ^0.4.21;\n\ncontract PredictTheFutureChallenge {\n    address guesser;\n    uint8 guess;\n    uint256 settlementBlockNumber;\n\n    function PredictTheFutureChallenge() public payable {\n        require(msg.value == 1 ether);\n    }\n\n    function isComplete() public view returns (bool) {\n        return address(this).balance == 0;\n    }\n\n    function lockInGuess(uint8 n) public payable {\n        require(guesser == 0);\n        require(msg.value == 1 ether);\n\n        guesser = msg.sender;\n        guess = n;\n        settlementBlockNumber = block.number + 1;\n    }\n\n    function settle() public {\n        require(msg.sender == guesser);\n        require(block.number > settlementBlockNumber);\n\n        uint8 answer = uint8(keccak256(block.blockhash(block.number - 1), now)) % 10;\n\n        guesser = 0;\n        if (guess == answer) {\n            msg.sender.transfer(2 ether);\n        }\n    }\n}",
  "sourcePath": "/Users/saurfang/workspace/capture-the-ether/contracts/PredictTheFutureChallenge.sol",
  "compiler": {
    "name": "solc",
    "version": "0.4.21+commit.dfe3193c.Emscripten.clang"
  },
  "schemaVersion": "2.0.0",
  "updatedAt": "2018-04-15T07:01:51.838Z"
}