{
  "contractName": "PredictTheFutureSolver",
  "abi": [
    {
      "inputs": [],
      "payable": false,
      "stateMutability": "nonpayable",
      "type": "constructor"
    },
    {
      "payable": true,
      "stateMutability": "payable",
      "type": "fallback"
    },
    {
      "constant": false,
      "inputs": [
        {
          "name": "_challenge",
          "type": "address"
        },
        {
          "name": "n",
          "type": "uint8"
        }
      ],
      "name": "lockInGuess",
      "outputs": [],
      "payable": true,
      "stateMutability": "payable",
      "type": "function"
    },
    {
      "constant": false,
      "inputs": [
        {
          "name": "_challenge",
          "type": "address"
        },
        {
          "name": "n",
          "type": "uint8"
        }
      ],
      "name": "guess",
      "outputs": [],
      "payable": true,
      "stateMutability": "payable",
      "type": "function"
    },
    {
      "constant": false,
      "inputs": [],
      "name": "withdraw",
      "outputs": [],
      "payable": false,
      "stateMutability": "nonpayable",
      "type": "function"
    }
  ],
  "bytecode": "0x6060604052341561000f57600080fd5b336000806101000a81548173ffffffffffffffffffffffffffffffffffffffff021916908373ffffffffffffffffffffffffffffffffffffffff1602179055506103558061005e6000396000f300606060405260043610610057576000357c0100000000000000000000000000000000000000000000000000000000900463ffffffff1680633ccfd60b146100595780635b71c7921461006e5780636efbdbc3146100a8575b005b341561006457600080fd5b61006c6100e2565b005b6100a6600480803573ffffffffffffffffffffffffffffffffffffffff1690602001909190803560ff169060200190919050506101b7565b005b6100e0600480803573ffffffffffffffffffffffffffffffffffffffff1690602001909190803560ff1690602001909190505061025c565b005b6000809054906101000a900473ffffffffffffffffffffffffffffffffffffffff1673ffffffffffffffffffffffffffffffffffffffff163373ffffffffffffffffffffffffffffffffffffffff1614151561013d57600080fd5b6000809054906101000a900473ffffffffffffffffffffffffffffffffffffffff1673ffffffffffffffffffffffffffffffffffffffff166108fc3073ffffffffffffffffffffffffffffffffffffffff16319081150290604051600060405180830381858888f1935050505015156101b557600080fd5b565b6000670de0b6b3a7640000341415156101cf57600080fd5b8290508073ffffffffffffffffffffffffffffffffffffffff16632c0e005434846040518363ffffffff167c0100000000000000000000000000000000000000000000000000000000028152600401808260ff1660ff1681526020019150506000604051808303818588803b151561024657600080fd5b5af1151561025357600080fd5b50505050505050565b600080600a6001430340426040518083600019166000191681526020018281526020019250505060405180910390206001900460ff1681151561029b57fe5b0691508260ff168260ff161415610323578390508073ffffffffffffffffffffffffffffffffffffffff166311da60b46040518163ffffffff167c0100000000000000000000000000000000000000000000000000000000028152600401600060405180830381600087803b151561031257600080fd5b5af1151561031f57600080fd5b5050505b505050505600a165627a7a72305820b78d25df38c731f73538c765afc9deea5220e84cd9f73f6168a95d1f2e25fd9d0029",
  "source": "pragma solidity ^0.4.21;\n\nimport \"./PredictTheFutureChallenge.sol\";\n\ncontract PredictTheFutureSolver {\n    address owner;\n\n    function PredictTheFutureSolver() public {\n        owner = msg.sender;\n    }\n\n    function lockInGuess(address _challenge, uint8 n)\n    public\n    payable {\n        require(msg.value == 1 ether);\n\n        PredictTheFutureChallenge challenge = PredictTheFutureChallenge(_challenge);\n        challenge.lockInGuess.value(msg.value)(n);\n    }\n\n    function guess(address _challenge, uint8 n)\n    public\n    payable {\n        uint8 answer = uint8(keccak256(block.blockhash(block.number - 1), now)) % 10;\n\n        if (answer == n) {\n            PredictTheFutureChallenge challenge = PredictTheFutureChallenge(_challenge);\n            challenge.settle();\n        }\n    }\n\n    function ()\n    public\n    payable {\n    }\n\n    function withdraw() public {\n        require(msg.sender == owner);\n        owner.transfer(address(this).balance);\n    }\n}\n",
  "sourcePath": "/Users/saurfang/workspace/capture-the-ether/contracts/PredictTheFutureSolver.sol",
  "compiler": {
    "name": "solc",
    "version": "0.4.21+commit.dfe3193c.Emscripten.clang"
  },
  "schemaVersion": "2.0.0",
  "updatedAt": "2018-04-15T07:01:51.844Z"
}