{
  "contractName": "PredictTheBlockHashChallenge",
  "abi": [
    {
      "inputs": [],
      "payable": true,
      "stateMutability": "payable",
      "type": "constructor"
    },
    {
      "constant": true,
      "inputs": [],
      "name": "isComplete",
      "outputs": [
        {
          "name": "",
          "type": "bool"
        }
      ],
      "payable": false,
      "stateMutability": "view",
      "type": "function"
    },
    {
      "constant": false,
      "inputs": [
        {
          "name": "hash",
          "type": "bytes32"
        }
      ],
      "name": "lockInGuess",
      "outputs": [],
      "payable": true,
      "stateMutability": "payable",
      "type": "function"
    },
    {
      "constant": false,
      "inputs": [],
      "name": "settle",
      "outputs": [],
      "payable": false,
      "stateMutability": "nonpayable",
      "type": "function"
    }
  ],
  "bytecode": "0x6060604052670de0b6b3a76400003414151561001a57600080fd5b6102cd806100296000396000f300606060405260043610610057576000357c0100000000000000000000000000000000000000000000000000000000900463ffffffff16806311da60b41461005c578063b2fa1c9e14610071578063ed7f559c1461009e575b600080fd5b341561006757600080fd5b61006f6100ba565b005b341561007c57600080fd5b6100846101cc565b604051808215151515815260200191505060405180910390f35b6100b86004808035600019169060200190919050506101ed565b005b60008060009054906101000a900473ffffffffffffffffffffffffffffffffffffffff1673ffffffffffffffffffffffffffffffffffffffff163373ffffffffffffffffffffffffffffffffffffffff1614151561011757600080fd5b6002544311151561012757600080fd5b60025440905060008060006101000a81548173ffffffffffffffffffffffffffffffffffffffff021916908373ffffffffffffffffffffffffffffffffffffffff16021790555080600019166001546000191614156101c9573373ffffffffffffffffffffffffffffffffffffffff166108fc671bc16d674ec800009081150290604051600060405180830381858888f1935050505015156101c857600080fd5b5b50565b6000803073ffffffffffffffffffffffffffffffffffffffff163114905090565b60008060009054906101000a900473ffffffffffffffffffffffffffffffffffffffff1673ffffffffffffffffffffffffffffffffffffffff1614151561023357600080fd5b670de0b6b3a76400003414151561024957600080fd5b336000806101000a81548173ffffffffffffffffffffffffffffffffffffffff021916908373ffffffffffffffffffffffffffffffffffffffff160217905550806001816000191690555060014301600281905550505600a165627a7a72305820f6ab1f6cdb89bddab87bd076f431b799b489e514d4083519786e5818fa6292040029",
  "source": "pragma solidity ^0.4.21;\n\ncontract PredictTheBlockHashChallenge {\n    address guesser;\n    bytes32 guess;\n    uint256 settlementBlockNumber;\n\n    function PredictTheBlockHashChallenge() public payable {\n        require(msg.value == 1 ether);\n    }\n\n    function isComplete() public view returns (bool) {\n        return address(this).balance == 0;\n    }\n\n    function lockInGuess(bytes32 hash) public payable {\n        require(guesser == 0);\n        require(msg.value == 1 ether);\n\n        guesser = msg.sender;\n        guess = hash;\n        settlementBlockNumber = block.number + 1;\n    }\n\n    function settle() public {\n        require(msg.sender == guesser);\n        require(block.number > settlementBlockNumber);\n\n        bytes32 answer = block.blockhash(settlementBlockNumber);\n\n        guesser = 0;\n        if (guess == answer) {\n            msg.sender.transfer(2 ether);\n        }\n    }\n}\n",
  "sourcePath": "/Users/saurfang/workspace/capture-the-ether/contracts/PredictTheBlockHashChallenge.sol",
  "compiler": {
    "name": "solc",
    "version": "0.4.21+commit.dfe3193c.Emscripten.clang"
  },
  "schemaVersion": "2.0.0",
  "updatedAt": "2018-04-15T07:01:51.831Z"
}